{
  "_format": "hh-sol-artifact-1",
  "contractName": "VWBLERC721",
  "sourceName": "contracts/access-condition/ERC721/VWBLERC721.sol",
  "abi": [
    {
      "inputs": [
        {
          "internalType": "address",
          "name": "_gatewayProxy",
          "type": "address"
        },
        {
          "internalType": "address",
          "name": "_accessCheckerContract",
          "type": "address"
        },
        {
          "internalType": "string",
          "name": "_signMessage",
          "type": "string"
        }
      ],
      "stateMutability": "nonpayable",
      "type": "constructor"
    },
    {
      "inputs": [
        {
          "internalType": "address",
          "name": "sender",
          "type": "address"
        },
        {
          "internalType": "uint256",
          "name": "tokenId",
          "type": "uint256"
        },
        {
          "internalType": "address",
          "name": "owner",
          "type": "address"
        }
      ],
      "name": "ERC721IncorrectOwner",
      "type": "error"
    },
    {
      "inputs": [
        {
          "internalType": "address",
          "name": "operator",
          "type": "address"
        },
        {
          "internalType": "uint256",
          "name": "tokenId",
          "type": "uint256"
        }
      ],
      "name": "ERC721InsufficientApproval",
      "type": "error"
    },
    {
      "inputs": [
        {
          "internalType": "address",
          "name": "approver",
          "type": "address"
        }
      ],
      "name": "ERC721InvalidApprover",
      "type": "error"
    },
    {
      "inputs": [
        {
          "internalType": "address",
          "name": "operator",
          "type": "address"
        }
      ],
      "name": "ERC721InvalidOperator",
      "type": "error"
    },
    {
      "inputs": [
        {
          "internalType": "address",
          "name": "owner",
          "type": "address"
        }
      ],
      "name": "ERC721InvalidOwner",
      "type": "error"
    },
    {
      "inputs": [
        {
          "internalType": "address",
          "name": "receiver",
          "type": "address"
        }
      ],
      "name": "ERC721InvalidReceiver",
      "type": "error"
    },
    {
      "inputs": [
        {
          "internalType": "address",
          "name": "sender",
          "type": "address"
        }
      ],
      "name": "ERC721InvalidSender",
      "type": "error"
    },
    {
      "inputs": [
        {
          "internalType": "uint256",
          "name": "tokenId",
          "type": "uint256"
        }
      ],
      "name": "ERC721NonexistentToken",
      "type": "error"
    },
    {
      "inputs": [
        {
          "internalType": "address",
          "name": "owner",
          "type": "address"
        }
      ],
      "name": "OwnableInvalidOwner",
      "type": "error"
    },
    {
      "inputs": [
        {
          "internalType": "address",
          "name": "account",
          "type": "address"
        }
      ],
      "name": "OwnableUnauthorizedAccount",
      "type": "error"
    },
    {
      "anonymous": false,
      "inputs": [
        {
          "indexed": true,
          "internalType": "address",
          "name": "owner",
          "type": "address"
        },
        {
          "indexed": true,
          "internalType": "address",
          "name": "approved",
          "type": "address"
        },
        {
          "indexed": true,
          "internalType": "uint256",
          "name": "tokenId",
          "type": "uint256"
        }
      ],
      "name": "Approval",
      "type": "event"
    },
    {
      "anonymous": false,
      "inputs": [
        {
          "indexed": true,
          "internalType": "address",
          "name": "owner",
          "type": "address"
        },
        {
          "indexed": true,
          "internalType": "address",
          "name": "operator",
          "type": "address"
        },
        {
          "indexed": false,
          "internalType": "bool",
          "name": "approved",
          "type": "bool"
        }
      ],
      "name": "ApprovalForAll",
      "type": "event"
    },
    {
      "anonymous": false,
      "inputs": [
        {
          "indexed": false,
          "internalType": "uint256",
          "name": "_fromTokenId",
          "type": "uint256"
        },
        {
          "indexed": false,
          "internalType": "uint256",
          "name": "_toTokenId",
          "type": "uint256"
        }
      ],
      "name": "BatchMetadataUpdate",
      "type": "event"
    },
    {
      "anonymous": false,
      "inputs": [
        {
          "indexed": false,
          "internalType": "uint256",
          "name": "_tokenId",
          "type": "uint256"
        }
      ],
      "name": "MetadataUpdate",
      "type": "event"
    },
    {
      "anonymous": false,
      "inputs": [
        {
          "indexed": false,
          "internalType": "address",
          "name": "sender",
          "type": "address"
        },
        {
          "indexed": false,
          "internalType": "uint256",
          "name": "tokenId",
          "type": "uint256"
        }
      ],
      "name": "NFTMinted",
      "type": "event"
    },
    {
      "anonymous": false,
      "inputs": [
        {
          "indexed": true,
          "internalType": "address",
          "name": "previousOwner",
          "type": "address"
        },
        {
          "indexed": true,
          "internalType": "address",
          "name": "newOwner",
          "type": "address"
        }
      ],
      "name": "OwnershipTransferred",
      "type": "event"
    },
    {
      "anonymous": false,
      "inputs": [
        {
          "indexed": true,
          "internalType": "address",
          "name": "from",
          "type": "address"
        },
        {
          "indexed": true,
          "internalType": "address",
          "name": "to",
          "type": "address"
        },
        {
          "indexed": true,
          "internalType": "uint256",
          "name": "tokenId",
          "type": "uint256"
        }
      ],
      "name": "Transfer",
      "type": "event"
    },
    {
      "anonymous": false,
      "inputs": [
        {
          "indexed": false,
          "internalType": "address",
          "name": "oldAccessCheckerContract",
          "type": "address"
        },
        {
          "indexed": false,
          "internalType": "address",
          "name": "newAccessCheckerContract",
          "type": "address"
        }
      ],
      "name": "accessCheckerContractChanged",
      "type": "event"
    },
    {
      "inputs": [],
      "name": "accessCheckerContract",
      "outputs": [
        {
          "internalType": "address",
          "name": "",
          "type": "address"
        }
      ],
      "stateMutability": "view",
      "type": "function"
    },
    {
      "inputs": [
        {
          "internalType": "address",
          "name": "to",
          "type": "address"
        },
        {
          "internalType": "uint256",
          "name": "tokenId",
          "type": "uint256"
        }
      ],
      "name": "approve",
      "outputs": [],
      "stateMutability": "nonpayable",
      "type": "function"
    },
    {
      "inputs": [
        {
          "internalType": "address",
          "name": "owner",
          "type": "address"
        }
      ],
      "name": "balanceOf",
      "outputs": [
        {
          "internalType": "uint256",
          "name": "",
          "type": "uint256"
        }
      ],
      "stateMutability": "view",
      "type": "function"
    },
    {
      "inputs": [],
      "name": "counter",
      "outputs": [
        {
          "internalType": "uint256",
          "name": "",
          "type": "uint256"
        }
      ],
      "stateMutability": "view",
      "type": "function"
    },
    {
      "inputs": [],
      "name": "gatewayProxy",
      "outputs": [
        {
          "internalType": "address",
          "name": "",
          "type": "address"
        }
      ],
      "stateMutability": "view",
      "type": "function"
    },
    {
      "inputs": [],
      "name": "getAllowOrigins",
      "outputs": [
        {
          "internalType": "string",
          "name": "",
          "type": "string"
        }
      ],
      "stateMutability": "view",
      "type": "function"
    },
    {
      "inputs": [
        {
          "internalType": "uint256",
          "name": "tokenId",
          "type": "uint256"
        }
      ],
      "name": "getApproved",
      "outputs": [
        {
          "internalType": "address",
          "name": "",
          "type": "address"
        }
      ],
      "stateMutability": "view",
      "type": "function"
    },
    {
      "inputs": [
        {
          "internalType": "bytes32",
          "name": "user",
          "type": "bytes32"
        }
      ],
      "name": "getDocumentId",
      "outputs": [
        {
          "internalType": "bytes32",
          "name": "",
          "type": "bytes32"
        }
      ],
      "stateMutability": "view",
      "type": "function"
    },
    {
      "inputs": [],
      "name": "getFee",
      "outputs": [
        {
          "internalType": "uint256",
          "name": "",
          "type": "uint256"
        }
      ],
      "stateMutability": "view",
      "type": "function"
    },
    {
      "inputs": [],
      "name": "getGatewayAddress",
      "outputs": [
        {
          "internalType": "address",
          "name": "",
          "type": "address"
        }
      ],
      "stateMutability": "view",
      "type": "function"
    },
    {
      "inputs": [
        {
          "internalType": "uint256",
          "name": "tokenId",
          "type": "uint256"
        }
      ],
      "name": "getMinter",
      "outputs": [
        {
          "internalType": "address",
          "name": "",
          "type": "address"
        }
      ],
      "stateMutability": "view",
      "type": "function"
    },
    {
      "inputs": [],
      "name": "getSignMessage",
      "outputs": [
        {
          "internalType": "string",
          "name": "",
          "type": "string"
        }
      ],
      "stateMutability": "view",
      "type": "function"
    },
    {
      "inputs": [
        {
          "internalType": "bytes32",
          "name": "user",
          "type": "bytes32"
        }
      ],
      "name": "getTokenByUser",
      "outputs": [
        {
          "internalType": "uint256[]",
          "name": "",
          "type": "uint256[]"
        }
      ],
      "stateMutability": "view",
      "type": "function"
    },
    {
      "inputs": [
        {
          "internalType": "uint256",
          "name": "tokenId",
          "type": "uint256"
        }
      ],
      "name": "getUser",
      "outputs": [
        {
          "internalType": "bytes32",
          "name": "",
          "type": "bytes32"
        }
      ],
      "stateMutability": "view",
      "type": "function"
    },
    {
      "inputs": [
        {
          "internalType": "address",
          "name": "owner",
          "type": "address"
        },
        {
          "internalType": "address",
          "name": "operator",
          "type": "address"
        }
      ],
      "name": "isApprovedForAll",
      "outputs": [
        {
          "internalType": "bool",
          "name": "",
          "type": "bool"
        }
      ],
      "stateMutability": "view",
      "type": "function"
    },
    {
      "inputs": [
        {
          "internalType": "string",
          "name": "_tokenUri",
          "type": "string"
        },
        {
          "internalType": "bytes32",
          "name": "_hashedUser",
          "type": "bytes32"
        }
      ],
      "name": "mintAnotherDiary",
      "outputs": [],
      "stateMutability": "nonpayable",
      "type": "function"
    },
    {
      "inputs": [
        {
          "internalType": "string",
          "name": "_tokenUri",
          "type": "string"
        },
        {
          "internalType": "bytes32",
          "name": "_documentId",
          "type": "bytes32"
        },
        {
          "internalType": "bytes32",
          "name": "_hashedUser",
          "type": "bytes32"
        }
      ],
      "name": "mintInitialDiary",
      "outputs": [],
      "stateMutability": "payable",
      "type": "function"
    },
    {
      "inputs": [],
      "name": "name",
      "outputs": [
        {
          "internalType": "string",
          "name": "",
          "type": "string"
        }
      ],
      "stateMutability": "view",
      "type": "function"
    },
    {
      "inputs": [],
      "name": "owner",
      "outputs": [
        {
          "internalType": "address",
          "name": "",
          "type": "address"
        }
      ],
      "stateMutability": "view",
      "type": "function"
    },
    {
      "inputs": [
        {
          "internalType": "uint256",
          "name": "tokenId",
          "type": "uint256"
        }
      ],
      "name": "ownerOf",
      "outputs": [
        {
          "internalType": "address",
          "name": "",
          "type": "address"
        }
      ],
      "stateMutability": "view",
      "type": "function"
    },
    {
      "inputs": [],
      "name": "renounceOwnership",
      "outputs": [],
      "stateMutability": "nonpayable",
      "type": "function"
    },
    {
      "inputs": [
        {
          "internalType": "address",
          "name": "from",
          "type": "address"
        },
        {
          "internalType": "address",
          "name": "to",
          "type": "address"
        },
        {
          "internalType": "uint256",
          "name": "tokenId",
          "type": "uint256"
        }
      ],
      "name": "safeTransferFrom",
      "outputs": [],
      "stateMutability": "nonpayable",
      "type": "function"
    },
    {
      "inputs": [
        {
          "internalType": "address",
          "name": "from",
          "type": "address"
        },
        {
          "internalType": "address",
          "name": "to",
          "type": "address"
        },
        {
          "internalType": "uint256",
          "name": "tokenId",
          "type": "uint256"
        },
        {
          "internalType": "bytes",
          "name": "data",
          "type": "bytes"
        }
      ],
      "name": "safeTransferFrom",
      "outputs": [],
      "stateMutability": "nonpayable",
      "type": "function"
    },
    {
      "inputs": [
        {
          "internalType": "address",
          "name": "newAccessCheckerContract",
          "type": "address"
        }
      ],
      "name": "setAccessCheckerContract",
      "outputs": [],
      "stateMutability": "nonpayable",
      "type": "function"
    },
    {
      "inputs": [
        {
          "internalType": "string",
          "name": "_origins",
          "type": "string"
        }
      ],
      "name": "setAllowOrigins",
      "outputs": [],
      "stateMutability": "nonpayable",
      "type": "function"
    },
    {
      "inputs": [
        {
          "internalType": "address",
          "name": "operator",
          "type": "address"
        },
        {
          "internalType": "bool",
          "name": "approved",
          "type": "bool"
        }
      ],
      "name": "setApprovalForAll",
      "outputs": [],
      "stateMutability": "nonpayable",
      "type": "function"
    },
    {
      "inputs": [
        {
          "internalType": "string",
          "name": "_signMessage",
          "type": "string"
        }
      ],
      "name": "setSignMessage",
      "outputs": [],
      "stateMutability": "nonpayable",
      "type": "function"
    },
    {
      "inputs": [
        {
          "internalType": "bytes4",
          "name": "interfaceId",
          "type": "bytes4"
        }
      ],
      "name": "supportsInterface",
      "outputs": [
        {
          "internalType": "bool",
          "name": "",
          "type": "bool"
        }
      ],
      "stateMutability": "view",
      "type": "function"
    },
    {
      "inputs": [],
      "name": "symbol",
      "outputs": [
        {
          "internalType": "string",
          "name": "",
          "type": "string"
        }
      ],
      "stateMutability": "view",
      "type": "function"
    },
    {
      "inputs": [
        {
          "internalType": "uint256",
          "name": "",
          "type": "uint256"
        }
      ],
      "name": "tokenIdToUser",
      "outputs": [
        {
          "internalType": "bytes32",
          "name": "",
          "type": "bytes32"
        }
      ],
      "stateMutability": "view",
      "type": "function"
    },
    {
      "inputs": [
        {
          "internalType": "uint256",
          "name": "tokenId",
          "type": "uint256"
        }
      ],
      "name": "tokenURI",
      "outputs": [
        {
          "internalType": "string",
          "name": "",
          "type": "string"
        }
      ],
      "stateMutability": "view",
      "type": "function"
    },
    {
      "inputs": [
        {
          "internalType": "address",
          "name": "from",
          "type": "address"
        },
        {
          "internalType": "address",
          "name": "to",
          "type": "address"
        },
        {
          "internalType": "uint256",
          "name": "tokenId",
          "type": "uint256"
        }
      ],
      "name": "transferFrom",
      "outputs": [],
      "stateMutability": "nonpayable",
      "type": "function"
    },
    {
      "inputs": [
        {
          "internalType": "address",
          "name": "newOwner",
          "type": "address"
        }
      ],
      "name": "transferOwnership",
      "outputs": [],
      "stateMutability": "nonpayable",
      "type": "function"
    },
    {
      "inputs": [
        {
          "internalType": "bytes32",
          "name": "",
          "type": "bytes32"
        }
      ],
      "name": "userToDocumentId",
      "outputs": [
        {
          "internalType": "bytes32",
          "name": "",
          "type": "bytes32"
        }
      ],
      "stateMutability": "view",
      "type": "function"
    }
  ],
  "bytecode": "0x60806040526000600555600680546001600160a01b031916331790553480156200002857600080fd5b506040516200221f3803806200221f8339810160408190526200004b91620001b0565b6040805180820182526004808252631595d09360e21b6020808401829052845180860190955291845290830152908484848282823380620000a657604051631e4fbdf760e01b81526000600482015260240160405180910390fd5b620000b1816200012d565b50600180546001600160a01b0319166001600160a01b0385161790556002620000db828262000339565b5050600480546001600160a01b0319166001600160a01b039290921691909117905550600992506200011291508490508262000339565b50600a62000121828262000339565b50505050505062000405565b600080546001600160a01b038381166001600160a01b0319831681178455604051919092169283917f8be0079c531659141344cd1fd0a4f28419497f9722a3daafe3b4186f6b6457e09190a35050565b80516001600160a01b03811681146200019557600080fd5b919050565b634e487b7160e01b600052604160045260246000fd5b600080600060608486031215620001c657600080fd5b620001d1846200017d565b92506020620001e28186016200017d565b60408601519093506001600160401b03808211156200020057600080fd5b818701915087601f8301126200021557600080fd5b8151818111156200022a576200022a6200019a565b604051601f8201601f19908116603f011681019083821181831017156200025557620002556200019a565b816040528281528a868487010111156200026e57600080fd5b600093505b8284101562000292578484018601518185018701529285019262000273565b60008684830101528096505050505050509250925092565b600181811c90821680620002bf57607f821691505b602082108103620002e057634e487b7160e01b600052602260045260246000fd5b50919050565b601f8211156200033457600081815260208120601f850160051c810160208610156200030f5750805b601f850160051c820191505b8181101562000330578281556001016200031b565b5050505b505050565b81516001600160401b038111156200035557620003556200019a565b6200036d81620003668454620002aa565b84620002e6565b602080601f831160018114620003a557600084156200038c5750858301515b600019600386901b1c1916600185901b17855562000330565b600085815260208120601f198616915b82811015620003d657888601518255948401946001909101908401620003b5565b5085821015620003f55787850151600019600388901b60f8161c191681555b5050505050600190811b01905550565b611e0a80620004156000396000f3fe6080604052600436106101f95760003560e01c80638da5cb5b1161010d578063c87b56dd116100a0578063dcbaeeb91161006f578063dcbaeeb9146105ce578063e985e9c5146105ee578063ef64a83d1461060e578063f2fde38b14610621578063fd764f221461064157600080fd5b8063c87b56dd14610557578063ced72f8714610577578063d185f5201461058c578063d7679165146105a157600080fd5b8063a22cb465116100dc578063a22cb465146104ca578063b0467deb146104ea578063b41bde1314610517578063b88d4fde1461053757600080fd5b80638da5cb5b1461045757806393fab57b1461047557806395d89b41146104955780639ab5e975146104aa57600080fd5b806342842e0e1161019057806361bc221a1161015f57806361bc221a146103d75780636352211e146103ed57806370a082311461040d578063715018a61461042d5780637db551b01461044257600080fd5b806342842e0e1461033157806356efca49146103515780635a920f061461038c5780635b7121f8146103ac57600080fd5b806322befa2e116101cc57806322befa2e146102af57806323b872dd146102dc5780632812a3d2146102fc578063357113461461031c57600080fd5b806301ffc9a7146101fe57806306fdde0314610233578063081812fc14610255578063095ea7b31461028d575b600080fd5b34801561020a57600080fd5b5061021e610219366004611682565b61066e565b60405190151581526020015b60405180910390f35b34801561023f57600080fd5b50610248610699565b60405161022a91906116ef565b34801561026157600080fd5b50610275610270366004611702565b61072b565b6040516001600160a01b03909116815260200161022a565b34801561029957600080fd5b506102ad6102a8366004611730565b610754565b005b3480156102bb57600080fd5b506102cf6102ca366004611702565b610763565b60405161022a919061175c565b3480156102e857600080fd5b506102ad6102f73660046117a0565b61085c565b34801561030857600080fd5b506102ad6103173660046117e1565b6108ec565b34801561032857600080fd5b50610275610971565b34801561033d57600080fd5b506102ad61034c3660046117a0565b6109e4565b34801561035d57600080fd5b5061037e61036c366004611702565b60086020526000908152604090205481565b60405190815260200161022a565b34801561039857600080fd5b506102ad6103a73660046118aa565b610a04565b3480156103b857600080fd5b506102756103c7366004611702565b506006546001600160a01b031690565b3480156103e357600080fd5b5061037e60055481565b3480156103f957600080fd5b50610275610408366004611702565b610a18565b34801561041957600080fd5b5061037e6104283660046117e1565b610a23565b34801561043957600080fd5b506102ad610a6b565b34801561044e57600080fd5b50610248610a7f565b34801561046357600080fd5b506000546001600160a01b0316610275565b34801561048157600080fd5b50600454610275906001600160a01b031681565b3480156104a157600080fd5b50610248610a8e565b3480156104b657600080fd5b506102ad6104c53660046118df565b610a9d565b3480156104d657600080fd5b506102ad6104e5366004611951565b610ab2565b3480156104f657600080fd5b5061037e610505366004611702565b60009081526007602052604090205490565b34801561052357600080fd5b50600154610275906001600160a01b031681565b34801561054357600080fd5b506102ad61055236600461198f565b610abd565b34801561056357600080fd5b50610248610572366004611702565b610ad4565b34801561058357600080fd5b5061037e610be5565b34801561059857600080fd5b50610248610c50565b3480156105ad57600080fd5b5061037e6105bc366004611702565b60009081526008602052604090205490565b3480156105da57600080fd5b506102ad6105e9366004611a0f565b610c5f565b3480156105fa57600080fd5b5061021e610609366004611a54565b610c9a565b6102ad61061c366004611a82565b610cc8565b34801561062d57600080fd5b506102ad61063c3660046117e1565b610d84565b34801561064d57600080fd5b5061037e61065c366004611702565b60076020526000908152604090205481565b60006001600160e01b03198216632483248360e11b1480610693575061069382610dc2565b92915050565b6060600980546106a890611ad0565b80601f01602080910402602001604051908101604052809291908181526020018280546106d490611ad0565b80156107215780601f106106f657610100808354040283529160200191610721565b820191906000526020600020905b81548152906001019060200180831161070457829003601f168201915b5050505050905090565b600061073682610e12565b506000828152600d60205260409020546001600160a01b0316610693565b61075f828233610e4b565b5050565b6060600060015b60055481116107a957600081815260076020526040902054849003610797578161079381611b0a565b9250505b806107a181611b0a565b91505061076a565b5060008167ffffffffffffffff8111156107c5576107c56117fe565b6040519080825280602002602001820160405280156107ee578160200160208202803683370190505b509050600060015b6005548111610852576000818152600760205260409020548690036108405780838361082181611b0a565b94508151811061083357610833611b31565b6020026020010181815250505b8061084a81611b0a565b9150506107f6565b5090949350505050565b6001600160a01b03821661088b57604051633250574960e11b8152600060048201526024015b60405180910390fd5b6000610898838333610e58565b9050836001600160a01b0316816001600160a01b0316146108e6576040516364283d7b60e01b81526001600160a01b0380861660048301526024820184905282166044820152606401610882565b50505050565b6108f4610f51565b6004546001600160a01b039081169082160361090f57600080fd5b600480546001600160a01b038381166001600160a01b031983168117909355604080519190921680825260208201939093527f9aaef5934caac7bf8ee7de13d1a1e98122180cb78e64abeae728ad559df64a6691015b60405180910390a15050565b60015460408051631ab889a360e11b815290516000926001600160a01b03169163357113469160048083019260209291908290030181865afa1580156109bb573d6000803e3d6000fd5b505050506040513d601f19601f820116820180604052508101906109df9190611b47565b905090565b6109ff83838360405180602001604052806000815250610abd565b505050565b610a0c610f51565b600361075f8282611bb2565b600061069382610e12565b60006001600160a01b038216610a4f576040516322718ad960e21b815260006004820152602401610882565b506001600160a01b03166000908152600c602052604090205490565b610a73610f51565b610a7d6000610f7e565b565b6060600280546106a890611ad0565b6060600a80546106a890611ad0565b610aa5610f51565b60026109ff828483611c72565b61075f338383610fce565b610ac884848461085c565b6108e68484848461106d565b6060610adf82610e12565b506000828152600f602052604081208054610af990611ad0565b80601f0160208091040260200160405190810160405280929190818152602001828054610b2590611ad0565b8015610b725780601f10610b4757610100808354040283529160200191610b72565b820191906000526020600020905b815481529060010190602001808311610b5557829003601f168201915b505050505090506000610b9060408051602081019091526000815290565b90508051600003610ba2575092915050565b815115610bd4578082604051602001610bbc929190611d32565b60405160208183030381529060405292505050919050565b610bdd84611196565b949350505050565b6000610bef610971565b6001600160a01b031663428c090b6040518163ffffffff1660e01b8152600401602060405180830381865afa158015610c2c573d6000803e3d6000fd5b505050506040513d601f19601f820116820180604052508101906109df9190611d61565b6060600380546106a890611ad0565b610c67610f51565b6000600560008154610c7890611b0a565b9182905550600081815260076020526040902083905590506109ff818461120b565b6001600160a01b039182166000908152600e6020908152604080832093909416825291909152205460ff1690565b610cd0610f51565b6000600560008154610ce190611b0a565b91829055506000818152600760209081526040808320869055858352600890915290208490559050610d13818561120b565b60048054604051630f384cd960e01b8152918201859052306024830152604482018390526001600160a01b031690630f384cd99034906064016000604051808303818588803b158015610d6557600080fd5b505af1158015610d79573d6000803e3d6000fd5b505050505050505050565b610d8c610f51565b6001600160a01b038116610db657604051631e4fbdf760e01b815260006004820152602401610882565b610dbf81610f7e565b50565b60006001600160e01b031982166380ac58cd60e01b1480610df357506001600160e01b03198216635b5e139f60e01b145b8061069357506301ffc9a760e01b6001600160e01b0319831614610693565b6000818152600b60205260408120546001600160a01b03168061069357604051637e27328960e01b815260048101849052602401610882565b6109ff8383836001611255565b6000828152600b60205260408120546001600160a01b0390811690831615610e8557610e8581848661135b565b6001600160a01b03811615610ec357610ea2600085600080611255565b6001600160a01b0381166000908152600c6020526040902080546000190190555b6001600160a01b03851615610ef2576001600160a01b0385166000908152600c60205260409020805460010190555b6000848152600b602052604080822080546001600160a01b0319166001600160a01b0389811691821790925591518793918516917fddf252ad1be2c89b69c2b068fc378daa952ba7f163c4a11628f55a4df523b3ef91a4949350505050565b6000546001600160a01b03163314610a7d5760405163118cdaa760e01b8152336004820152602401610882565b600080546001600160a01b038381166001600160a01b0319831681178455604051919092169283917f8be0079c531659141344cd1fd0a4f28419497f9722a3daafe3b4186f6b6457e09190a35050565b6001600160a01b03821661100057604051630b61174360e31b81526001600160a01b0383166004820152602401610882565b6001600160a01b038381166000818152600e6020908152604080832094871680845294825291829020805460ff191686151590811790915591519182527f17307eab39ab6107e8899845ad3d59bd9653f200f220920489ca2b5937696c31910160405180910390a3505050565b6001600160a01b0383163b156108e657604051630a85bd0160e11b81526001600160a01b0384169063150b7a02906110af903390889087908790600401611d7a565b6020604051808303816000875af19250505080156110ea575060408051601f3d908101601f191682019092526110e791810190611db7565b60015b611153573d808015611118576040519150601f19603f3d011682016040523d82523d6000602084013e61111d565b606091505b50805160000361114b57604051633250574960e11b81526001600160a01b0385166004820152602401610882565b805181602001fd5b6001600160e01b03198116630a85bd0160e11b1461118f57604051633250574960e11b81526001600160a01b0385166004820152602401610882565b5050505050565b60606111a182610e12565b5060006111b960408051602081019091526000815290565b905060008151116111d95760405180602001604052806000815250611204565b806111e3846113bf565b6040516020016111f4929190611d32565b6040516020818303038152906040525b9392505050565b6112153383611452565b61121f828261146c565b60408051338152602081018490527f4cc0a9c4a99ddc700de1af2c9f916a7cbfdb71f14801ccff94061ad1ef8a80409101610965565b808061126957506001600160a01b03821615155b1561132b57600061127984610e12565b90506001600160a01b038316158015906112a55750826001600160a01b0316816001600160a01b031614155b80156112b857506112b68184610c9a565b155b156112e15760405163a9fbf51f60e01b81526001600160a01b0384166004820152602401610882565b81156113295783856001600160a01b0316826001600160a01b03167f8c5be1e5ebec7d5bd14f71427d1e84f3dd0314c0f7b2291e5b200ac8c7c3b92560405160405180910390a45b505b50506000908152600d6020526040902080546001600160a01b0319166001600160a01b0392909216919091179055565b6113668383836114b5565b6109ff576001600160a01b03831661139457604051637e27328960e01b815260048101829052602401610882565b60405163177e802f60e01b81526001600160a01b038316600482015260248101829052604401610882565b606060006113cc83611518565b600101905060008167ffffffffffffffff8111156113ec576113ec6117fe565b6040519080825280601f01601f191660200182016040528015611416576020820181803683370190505b5090508181016020015b600019016f181899199a1a9b1b9c1cb0b131b232b360811b600a86061a8153600a850494508461142057509392505050565b61075f8282604051806020016040528060008152506115f0565b6000828152600f602052604090206114848282611bb2565b506040518281527ff8e1a15aba9398e019f0b49df1a4fde98ee17ae345cb5f6b5e2c27f5033e8ce790602001610965565b60006001600160a01b03831615801590610bdd5750826001600160a01b0316846001600160a01b031614806114ef57506114ef8484610c9a565b80610bdd5750506000908152600d60205260409020546001600160a01b03908116911614919050565b60008072184f03e93ff9f4daa797ed6e38ed64bf6a1f0160401b83106115575772184f03e93ff9f4daa797ed6e38ed64bf6a1f0160401b830492506040015b6d04ee2d6d415b85acef81000000008310611583576d04ee2d6d415b85acef8100000000830492506020015b662386f26fc1000083106115a157662386f26fc10000830492506010015b6305f5e10083106115b9576305f5e100830492506008015b61271083106115cd57612710830492506004015b606483106115df576064830492506002015b600a83106106935760010192915050565b6115fa8383611607565b6109ff600084848461106d565b6001600160a01b03821661163157604051633250574960e11b815260006004820152602401610882565b600061163f83836000610e58565b90506001600160a01b038116156109ff576040516339e3563760e11b815260006004820152602401610882565b6001600160e01b031981168114610dbf57600080fd5b60006020828403121561169457600080fd5b81356112048161166c565b60005b838110156116ba5781810151838201526020016116a2565b50506000910152565b600081518084526116db81602086016020860161169f565b601f01601f19169290920160200192915050565b60208152600061120460208301846116c3565b60006020828403121561171457600080fd5b5035919050565b6001600160a01b0381168114610dbf57600080fd5b6000806040838503121561174357600080fd5b823561174e8161171b565b946020939093013593505050565b6020808252825182820181905260009190848201906040850190845b8181101561179457835183529284019291840191600101611778565b50909695505050505050565b6000806000606084860312156117b557600080fd5b83356117c08161171b565b925060208401356117d08161171b565b929592945050506040919091013590565b6000602082840312156117f357600080fd5b81356112048161171b565b634e487b7160e01b600052604160045260246000fd5b600067ffffffffffffffff8084111561182f5761182f6117fe565b604051601f8501601f19908116603f01168101908282118183101715611857576118576117fe565b8160405280935085815286868601111561187057600080fd5b858560208301376000602087830101525050509392505050565b600082601f83011261189b57600080fd5b61120483833560208501611814565b6000602082840312156118bc57600080fd5b813567ffffffffffffffff8111156118d357600080fd5b610bdd8482850161188a565b600080602083850312156118f257600080fd5b823567ffffffffffffffff8082111561190a57600080fd5b818501915085601f83011261191e57600080fd5b81358181111561192d57600080fd5b86602082850101111561193f57600080fd5b60209290920196919550909350505050565b6000806040838503121561196457600080fd5b823561196f8161171b565b91506020830135801515811461198457600080fd5b809150509250929050565b600080600080608085870312156119a557600080fd5b84356119b08161171b565b935060208501356119c08161171b565b925060408501359150606085013567ffffffffffffffff8111156119e357600080fd5b8501601f810187136119f457600080fd5b611a0387823560208401611814565b91505092959194509250565b60008060408385031215611a2257600080fd5b823567ffffffffffffffff811115611a3957600080fd5b611a458582860161188a565b95602094909401359450505050565b60008060408385031215611a6757600080fd5b8235611a728161171b565b915060208301356119848161171b565b600080600060608486031215611a9757600080fd5b833567ffffffffffffffff811115611aae57600080fd5b611aba8682870161188a565b9660208601359650604090950135949350505050565b600181811c90821680611ae457607f821691505b602082108103611b0457634e487b7160e01b600052602260045260246000fd5b50919050565b600060018201611b2a57634e487b7160e01b600052601160045260246000fd5b5060010190565b634e487b7160e01b600052603260045260246000fd5b600060208284031215611b5957600080fd5b81516112048161171b565b601f8211156109ff57600081815260208120601f850160051c81016020861015611b8b5750805b601f850160051c820191505b81811015611baa57828155600101611b97565b505050505050565b815167ffffffffffffffff811115611bcc57611bcc6117fe565b611be081611bda8454611ad0565b84611b64565b602080601f831160018114611c155760008415611bfd5750858301515b600019600386901b1c1916600185901b178555611baa565b600085815260208120601f198616915b82811015611c4457888601518255948401946001909101908401611c25565b5085821015611c625787850151600019600388901b60f8161c191681555b5050505050600190811b01905550565b67ffffffffffffffff831115611c8a57611c8a6117fe565b611c9e83611c988354611ad0565b83611b64565b6000601f841160018114611cd25760008515611cba5750838201355b600019600387901b1c1916600186901b17835561118f565b600083815260209020601f19861690835b82811015611d035786850135825560209485019460019092019101611ce3565b5086821015611d205760001960f88860031b161c19848701351681555b505060018560011b0183555050505050565b60008351611d4481846020880161169f565b835190830190611d5881836020880161169f565b01949350505050565b600060208284031215611d7357600080fd5b5051919050565b6001600160a01b0385811682528416602082015260408101839052608060608201819052600090611dad908301846116c3565b9695505050505050565b600060208284031215611dc957600080fd5b81516112048161166c56fea26469706673582212203e3599f79a7e0cf2ba3089b9af0f3e09a20f7cd4b26735f6b57e635f28d361d564736f6c63430008140033",
  "linkReferences": {},
  "deployedLinkReferences": {}
}